{
  "contractName": "CharityDonation",
  "abi": [
    {
      "inputs": [],
      "stateMutability": "nonpayable",
      "type": "constructor"
    },
    {
      "anonymous": false,
      "inputs": [
        {
          "indexed": true,
          "internalType": "uint256",
          "name": "causeId",
          "type": "uint256"
        },
        {
          "indexed": false,
          "internalType": "string",
          "name": "name",
          "type": "string"
        }
      ],
      "name": "CauseAdded",
      "type": "event"
    },
    {
      "anonymous": false,
      "inputs": [
        {
          "indexed": true,
          "internalType": "uint256",
          "name": "causeId",
          "type": "uint256"
        },
        {
          "indexed": true,
          "internalType": "address",
          "name": "donor",
          "type": "address"
        },
        {
          "indexed": false,
          "internalType": "uint256",
          "name": "amount",
          "type": "uint256"
        }
      ],
      "name": "DonationMade",
      "type": "event"
    },
    {
      "inputs": [],
      "name": "causeCount",
      "outputs": [
        {
          "internalType": "uint256",
          "name": "",
          "type": "uint256"
        }
      ],
      "stateMutability": "view",
      "type": "function",
      "constant": true
    },
    {
      "inputs": [
        {
          "internalType": "uint256",
          "name": "",
          "type": "uint256"
        }
      ],
      "name": "causes",
      "outputs": [
        {
          "internalType": "string",
          "name": "name",
          "type": "string"
        },
        {
          "internalType": "string",
          "name": "description",
          "type": "string"
        },
        {
          "internalType": "uint256",
          "name": "totalDonations",
          "type": "uint256"
        },
        {
          "internalType": "bool",
          "name": "isActive",
          "type": "bool"
        }
      ],
      "stateMutability": "view",
      "type": "function",
      "constant": true
    },
    {
      "inputs": [],
      "name": "owner",
      "outputs": [
        {
          "internalType": "address",
          "name": "",
          "type": "address"
        }
      ],
      "stateMutability": "view",
      "type": "function",
      "constant": true
    },
    {
      "inputs": [
        {
          "internalType": "string",
          "name": "_name",
          "type": "string"
        },
        {
          "internalType": "string",
          "name": "_description",
          "type": "string"
        }
      ],
      "name": "addCause",
      "outputs": [],
      "stateMutability": "nonpayable",
      "type": "function"
    },
    {
      "inputs": [
        {
          "internalType": "uint256",
          "name": "_causeId",
          "type": "uint256"
        }
      ],
      "name": "makeDonation",
      "outputs": [],
      "stateMutability": "payable",
      "type": "function",
      "payable": true
    },
    {
      "inputs": [
        {
          "internalType": "uint256",
          "name": "_causeId",
          "type": "uint256"
        }
      ],
      "name": "getCause",
      "outputs": [
        {
          "internalType": "string",
          "name": "name",
          "type": "string"
        },
        {
          "internalType": "string",
          "name": "description",
          "type": "string"
        },
        {
          "internalType": "uint256",
          "name": "totalDonations",
          "type": "uint256"
        },
        {
          "internalType": "bool",
          "name": "isActive",
          "type": "bool"
        }
      ],
      "stateMutability": "view",
      "type": "function",
      "constant": true
    },
    {
      "inputs": [
        {
          "internalType": "uint256",
          "name": "_causeId",
          "type": "uint256"
        }
      ],
      "name": "toggleCauseStatus",
      "outputs": [],
      "stateMutability": "nonpayable",
      "type": "function"
    }
  ],
  "bytecode": "0x608060405234801561001057600080fd5b5033600260006101000a81548173ffffffffffffffffffffffffffffffffffffffff021916908373ffffffffffffffffffffffffffffffffffffffff16021790555061128b806100616000396000f3fe6080604052600436106100705760003560e01c80638fce8dd71161004e5780638fce8dd7146101095780639a79edec146101495780639c17cbb614610174578063b219f9161461019d57610070565b80634fb2c79814610075578063538a942a1461009e5780638da5cb5b146100de575b600080fd5b34801561008157600080fd5b5061009c60048036038101906100979190610950565b6101b9565b005b3480156100aa57600080fd5b506100c560048036038101906100c09190610950565b6102ed565b6040516100d59493929190610a37565b60405180910390f35b3480156100ea57600080fd5b506100f361043a565b6040516101009190610acb565b60405180910390f35b34801561011557600080fd5b50610130600480360381019061012b9190610950565b610460565b6040516101409493929190610a37565b60405180910390f35b34801561015557600080fd5b5061015e610614565b60405161016b9190610ae6565b60405180910390f35b34801561018057600080fd5b5061019b60048036038101906101969190610c36565b61061a565b005b6101b760048036038101906101b29190610950565b610792565b005b600260009054906101000a900473ffffffffffffffffffffffffffffffffffffffff1673ffffffffffffffffffffffffffffffffffffffff163373ffffffffffffffffffffffffffffffffffffffff1614610249576040517f08c379a000000000000000000000000000000000000000000000000000000000815260040161024090610d20565b60405180910390fd5b60008111801561025b57506001548111155b61029a576040517f08c379a000000000000000000000000000000000000000000000000000000000815260040161029190610d8c565b60405180910390fd5b60008082815260200190815260200160002060030160009054906101000a900460ff161560008083815260200190815260200160002060030160006101000a81548160ff02191690831515021790555050565b600060205280600052604060002060009150905080600001805461031090610ddb565b80601f016020809104026020016040519081016040528092919081815260200182805461033c90610ddb565b80156103895780601f1061035e57610100808354040283529160200191610389565b820191906000526020600020905b81548152906001019060200180831161036c57829003601f168201915b50505050509080600101805461039e90610ddb565b80601f01602080910402602001604051908101604052809291908181526020018280546103ca90610ddb565b80156104175780601f106103ec57610100808354040283529160200191610417565b820191906000526020600020905b8154815290600101906020018083116103fa57829003601f168201915b5050505050908060020154908060030160009054906101000a900460ff16905084565b600260009054906101000a900473ffffffffffffffffffffffffffffffffffffffff1681565b60608060008060008511801561047857506001548511155b6104b7576040517f08c379a00000000000000000000000000000000000000000000000000000000081526004016104ae90610d8c565b60405180910390fd5b60008060008781526020019081526020016000209050806000018160010182600201548360030160009054906101000a900460ff168380546104f890610ddb565b80601f016020809104026020016040519081016040528092919081815260200182805461052490610ddb565b80156105715780601f1061054657610100808354040283529160200191610571565b820191906000526020600020905b81548152906001019060200180831161055457829003601f168201915b5050505050935082805461058490610ddb565b80601f01602080910402602001604051908101604052809291908181526020018280546105b090610ddb565b80156105fd5780601f106105d2576101008083540402835291602001916105fd565b820191906000526020600020905b8154815290600101906020018083116105e057829003601f168201915b505050505092509450945094509450509193509193565b60015481565b600260009054906101000a900473ffffffffffffffffffffffffffffffffffffffff1673ffffffffffffffffffffffffffffffffffffffff163373ffffffffffffffffffffffffffffffffffffffff16146106aa576040517f08c379a00000000000000000000000000000000000000000000000000000000081526004016106a190610d20565b60405180910390fd5b600160008154809291906106bd90610e3b565b91905055506040518060800160405280838152602001828152602001600081526020016001151581525060008060015481526020019081526020016000206000820151816000019081610710919061102f565b506020820151816001019081610726919061102f565b506040820151816002015560608201518160030160006101000a81548160ff0219169083151502179055509050506001547fbcb17f4ed2db834cb3a5753d33ffd1fb98e56e225b49bc779eeec87df8909239836040516107869190611101565b60405180910390a25050565b6000811180156107a457506001548111155b6107e3576040517f08c379a00000000000000000000000000000000000000000000000000000000081526004016107da90610d8c565b60405180910390fd5b60008082815260200190815260200160002060030160009054906101000a900460ff16610845576040517f08c379a000000000000000000000000000000000000000000000000000000000815260040161083c9061116f565b60405180910390fd5b60003411610888576040517f08c379a000000000000000000000000000000000000000000000000000000000815260040161087f90611201565b60405180910390fd5b3460008083815260200190815260200160002060020160008282546108ad9190611221565b925050819055503373ffffffffffffffffffffffffffffffffffffffff16817fe555da28bdb778f65d22794d88927ebaeca03f7de9d1b7d39245bc8fb5ca078a346040516108fb9190610ae6565b60405180910390a350565b6000604051905090565b600080fd5b600080fd5b6000819050919050565b61092d8161091a565b811461093857600080fd5b50565b60008135905061094a81610924565b92915050565b60006020828403121561096657610965610910565b5b60006109748482850161093b565b91505092915050565b600081519050919050565b600082825260208201905092915050565b60005b838110156109b757808201518184015260208101905061099c565b60008484015250505050565b6000601f19601f8301169050919050565b60006109df8261097d565b6109e98185610988565b93506109f9818560208601610999565b610a02816109c3565b840191505092915050565b610a168161091a565b82525050565b60008115159050919050565b610a3181610a1c565b82525050565b60006080820190508181036000830152610a5181876109d4565b90508181036020830152610a6581866109d4565b9050610a746040830185610a0d565b610a816060830184610a28565b95945050505050565b600073ffffffffffffffffffffffffffffffffffffffff82169050919050565b6000610ab582610a8a565b9050919050565b610ac581610aaa565b82525050565b6000602082019050610ae06000830184610abc565b92915050565b6000602082019050610afb6000830184610a0d565b92915050565b600080fd5b600080fd5b7f4e487b7100000000000000000000000000000000000000000000000000000000600052604160045260246000fd5b610b43826109c3565b810181811067ffffffffffffffff82111715610b6257610b61610b0b565b5b80604052505050565b6000610b75610906565b9050610b818282610b3a565b919050565b600067ffffffffffffffff821115610ba157610ba0610b0b565b5b610baa826109c3565b9050602081019050919050565b82818337600083830152505050565b6000610bd9610bd484610b86565b610b6b565b905082815260208101848484011115610bf557610bf4610b06565b5b610c00848285610bb7565b509392505050565b600082601f830112610c1d57610c1c610b01565b5b8135610c2d848260208601610bc6565b91505092915050565b60008060408385031215610c4d57610c4c610910565b5b600083013567ffffffffffffffff811115610c6b57610c6a610915565b5b610c7785828601610c08565b925050602083013567ffffffffffffffff811115610c9857610c97610915565b5b610ca485828601610c08565b9150509250929050565b7f5365756c206c652070726f70726965746169726520706575742065666665637460008201527f75657220636574746520616374696f6e00000000000000000000000000000000602082015250565b6000610d0a603083610988565b9150610d1582610cae565b604082019050919050565b60006020820190508181036000830152610d3981610cfd565b9050919050565b7f436175736520696e76616c696465000000000000000000000000000000000000600082015250565b6000610d76600e83610988565b9150610d8182610d40565b602082019050919050565b60006020820190508181036000830152610da581610d69565b9050919050565b7f4e487b7100000000000000000000000000000000000000000000000000000000600052602260045260246000fd5b60006002820490506001821680610df357607f821691505b602082108103610e0657610e05610dac565b5b50919050565b7f4e487b7100000000000000000000000000000000000000000000000000000000600052601160045260246000fd5b6000610e468261091a565b91507fffffffffffffffffffffffffffffffffffffffffffffffffffffffffffffffff8203610e7857610e77610e0c565b5b600182019050919050565b60008190508160005260206000209050919050565b60006020601f8301049050919050565b600082821b905092915050565b600060088302610ee57fffffffffffffffffffffffffffffffffffffffffffffffffffffffffffffffff82610ea8565b610eef8683610ea8565b95508019841693508086168417925050509392505050565b6000819050919050565b6000610f2c610f27610f228461091a565b610f07565b61091a565b9050919050565b6000819050919050565b610f4683610f11565b610f5a610f5282610f33565b848454610eb5565b825550505050565b600090565b610f6f610f62565b610f7a818484610f3d565b505050565b5b81811015610f9e57610f93600082610f67565b600181019050610f80565b5050565b601f821115610fe357610fb481610e83565b610fbd84610e98565b81016020851015610fcc578190505b610fe0610fd885610e98565b830182610f7f565b50505b505050565b600082821c905092915050565b600061100660001984600802610fe8565b1980831691505092915050565b600061101f8383610ff5565b9150826002028217905092915050565b6110388261097d565b67ffffffffffffffff81111561105157611050610b0b565b5b61105b8254610ddb565b611066828285610fa2565b600060209050601f8311600181146110995760008415611087578287015190505b6110918582611013565b8655506110f9565b601f1984166110a786610e83565b60005b828110156110cf578489015182556001820191506020850194506020810190506110aa565b868310156110ec57848901516110e8601f891682610ff5565b8355505b6001600288020188555050505b505050505050565b6000602082019050818103600083015261111b81846109d4565b905092915050565b7f4365747465206361757365206e2765737420706c757320616374697665000000600082015250565b6000611159601d83610988565b915061116482611123565b602082019050919050565b600060208201905081810360008301526111888161114c565b9050919050565b7f4c65206d6f6e74616e7420647520646f6e20646f69742065747265207375706560008201527f7269657572206120300000000000000000000000000000000000000000000000602082015250565b60006111eb602983610988565b91506111f68261118f565b604082019050919050565b6000602082019050818103600083015261121a816111de565b9050919050565b600061122c8261091a565b91506112378361091a565b925082820190508082111561124f5761124e610e0c565b5b9291505056fea2646970667358221220284e72122c986b7652c0375bdf529d8e6616c7555a71eda85ebd7ba1a485e57c64736f6c63430008110033",
  "immutableReferences": {},
  "source": "// SPDX-License-Identifier: GPL-3.0\r\npragma solidity >=0.8.2 <0.9.0;\r\n\r\ncontract CharityDonation {\r\n    struct Cause {\r\n        string name;\r\n        string description;\r\n        uint256 totalDonations;\r\n        bool isActive;\r\n    }\r\n    \r\n    mapping(uint256 => Cause) public causes;\r\n    uint256 public causeCount;\r\n    address public owner;\r\n    \r\n    event DonationMade(uint256 indexed causeId, address indexed donor, uint256 amount);\r\n    event CauseAdded(uint256 indexed causeId, string name);\r\n    \r\n    constructor() {\r\n        owner = msg.sender;\r\n    }\r\n    \r\n    modifier onlyOwner() {\r\n        require(msg.sender == owner, \"Seul le proprietaire peut effectuer cette action\");\r\n        _;\r\n    }\r\n    \r\n    function addCause(string memory _name, string memory _description) public onlyOwner {\r\n        causeCount++;\r\n        causes[causeCount] = Cause({\r\n            name: _name,\r\n            description: _description,\r\n            totalDonations: 0,\r\n            isActive: true\r\n        });\r\n        \r\n        emit CauseAdded(causeCount, _name);\r\n    }\r\n    \r\n    function makeDonation(uint256 _causeId) public payable {\r\n        require(_causeId > 0 && _causeId <= causeCount, \"Cause invalide\");\r\n        require(causes[_causeId].isActive, \"Cette cause n'est plus active\");\r\n        require(msg.value > 0, \"Le montant du don doit etre superieur a 0\");\r\n        \r\n        causes[_causeId].totalDonations += msg.value;\r\n        \r\n        emit DonationMade(_causeId, msg.sender, msg.value);\r\n    }\r\n    \r\n    function getCause(uint256 _causeId) public view returns (\r\n        string memory name,\r\n        string memory description,\r\n        uint256 totalDonations,\r\n        bool isActive\r\n    ) {\r\n        require(_causeId > 0 && _causeId <= causeCount, \"Cause invalide\");\r\n        Cause storage cause = causes[_causeId];\r\n        return (\r\n            cause.name,\r\n            cause.description,\r\n            cause.totalDonations,\r\n            cause.isActive\r\n        );\r\n    }\r\n    \r\n    function toggleCauseStatus(uint256 _causeId) public onlyOwner {\r\n        require(_causeId > 0 && _causeId <= causeCount, \"Cause invalide\");\r\n        causes[_causeId].isActive = !causes[_causeId].isActive;\r\n    }\r\n}",
  "sourcePath": "C:\\Users\\AdMin\\Desktop\\blockchain\\avito\\contracts\\Donation.sol",
  "compiler": {
    "name": "solc",
    "version": "0.8.17+commit.8df45f5f.Emscripten.clang"
  },
  "schemaVersion": "3.4.16",
  "updatedAt": "2024-11-05T11:13:12.969Z",
  "networkType": "ethereum",
  "devdoc": {
    "kind": "dev",
    "methods": {},
    "version": 1
  },
  "userdoc": {
    "kind": "user",
    "methods": {},
    "version": 1
  }
}